{
  "contractName": "HYPE",
  "abi": [
    {
      "inputs": [],
      "stateMutability": "nonpayable",
      "type": "constructor"
    },
    {
      "anonymous": false,
      "inputs": [
        {
          "indexed": true,
          "internalType": "address",
          "name": "owner",
          "type": "address"
        },
        {
          "indexed": true,
          "internalType": "address",
          "name": "spender",
          "type": "address"
        },
        {
          "indexed": false,
          "internalType": "uint256",
          "name": "value",
          "type": "uint256"
        }
      ],
      "name": "Approval",
      "type": "event"
    },
    {
      "anonymous": false,
      "inputs": [
        {
          "indexed": true,
          "internalType": "address",
          "name": "_of",
          "type": "address"
        },
        {
          "indexed": true,
          "internalType": "bytes32",
          "name": "_reason",
          "type": "bytes32"
        },
        {
          "indexed": false,
          "internalType": "uint256",
          "name": "_amount",
          "type": "uint256"
        },
        {
          "indexed": false,
          "internalType": "uint256",
          "name": "_validity",
          "type": "uint256"
        }
      ],
      "name": "Locked",
      "type": "event"
    },
    {
      "anonymous": false,
      "inputs": [
        {
          "indexed": true,
          "internalType": "bytes32",
          "name": "role",
          "type": "bytes32"
        },
        {
          "indexed": true,
          "internalType": "bytes32",
          "name": "previousAdminRole",
          "type": "bytes32"
        },
        {
          "indexed": true,
          "internalType": "bytes32",
          "name": "newAdminRole",
          "type": "bytes32"
        }
      ],
      "name": "RoleAdminChanged",
      "type": "event"
    },
    {
      "anonymous": false,
      "inputs": [
        {
          "indexed": true,
          "internalType": "bytes32",
          "name": "role",
          "type": "bytes32"
        },
        {
          "indexed": true,
          "internalType": "address",
          "name": "account",
          "type": "address"
        },
        {
          "indexed": true,
          "internalType": "address",
          "name": "sender",
          "type": "address"
        }
      ],
      "name": "RoleGranted",
      "type": "event"
    },
    {
      "anonymous": false,
      "inputs": [
        {
          "indexed": true,
          "internalType": "bytes32",
          "name": "role",
          "type": "bytes32"
        },
        {
          "indexed": true,
          "internalType": "address",
          "name": "account",
          "type": "address"
        },
        {
          "indexed": true,
          "internalType": "address",
          "name": "sender",
          "type": "address"
        }
      ],
      "name": "RoleRevoked",
      "type": "event"
    },
    {
      "anonymous": false,
      "inputs": [
        {
          "indexed": true,
          "internalType": "address",
          "name": "from",
          "type": "address"
        },
        {
          "indexed": true,
          "internalType": "address",
          "name": "to",
          "type": "address"
        },
        {
          "indexed": false,
          "internalType": "uint256",
          "name": "value",
          "type": "uint256"
        }
      ],
      "name": "Transfer",
      "type": "event"
    },
    {
      "anonymous": false,
      "inputs": [
        {
          "indexed": true,
          "internalType": "address",
          "name": "_of",
          "type": "address"
        },
        {
          "indexed": true,
          "internalType": "bytes32",
          "name": "_reason",
          "type": "bytes32"
        },
        {
          "indexed": false,
          "internalType": "uint256",
          "name": "_amount",
          "type": "uint256"
        }
      ],
      "name": "Unlocked",
      "type": "event"
    },
    {
      "inputs": [],
      "name": "DEFAULT_ADMIN_ROLE",
      "outputs": [
        {
          "internalType": "bytes32",
          "name": "",
          "type": "bytes32"
        }
      ],
      "stateMutability": "view",
      "type": "function",
      "constant": true
    },
    {
      "inputs": [
        {
          "internalType": "address",
          "name": "owner",
          "type": "address"
        },
        {
          "internalType": "address",
          "name": "spender",
          "type": "address"
        }
      ],
      "name": "allowance",
      "outputs": [
        {
          "internalType": "uint256",
          "name": "",
          "type": "uint256"
        }
      ],
      "stateMutability": "view",
      "type": "function",
      "constant": true
    },
    {
      "inputs": [
        {
          "internalType": "address",
          "name": "spender",
          "type": "address"
        },
        {
          "internalType": "uint256",
          "name": "amount",
          "type": "uint256"
        }
      ],
      "name": "approve",
      "outputs": [
        {
          "internalType": "bool",
          "name": "",
          "type": "bool"
        }
      ],
      "stateMutability": "nonpayable",
      "type": "function"
    },
    {
      "inputs": [
        {
          "internalType": "address",
          "name": "account",
          "type": "address"
        }
      ],
      "name": "balanceOf",
      "outputs": [
        {
          "internalType": "uint256",
          "name": "",
          "type": "uint256"
        }
      ],
      "stateMutability": "view",
      "type": "function",
      "constant": true
    },
    {
      "inputs": [],
      "name": "decimals",
      "outputs": [
        {
          "internalType": "uint8",
          "name": "",
          "type": "uint8"
        }
      ],
      "stateMutability": "view",
      "type": "function",
      "constant": true
    },
    {
      "inputs": [
        {
          "internalType": "address",
          "name": "spender",
          "type": "address"
        },
        {
          "internalType": "uint256",
          "name": "subtractedValue",
          "type": "uint256"
        }
      ],
      "name": "decreaseAllowance",
      "outputs": [
        {
          "internalType": "bool",
          "name": "",
          "type": "bool"
        }
      ],
      "stateMutability": "nonpayable",
      "type": "function"
    },
    {
      "inputs": [
        {
          "internalType": "bytes32",
          "name": "role",
          "type": "bytes32"
        }
      ],
      "name": "getRoleAdmin",
      "outputs": [
        {
          "internalType": "bytes32",
          "name": "",
          "type": "bytes32"
        }
      ],
      "stateMutability": "view",
      "type": "function",
      "constant": true
    },
    {
      "inputs": [
        {
          "internalType": "bytes32",
          "name": "role",
          "type": "bytes32"
        },
        {
          "internalType": "uint256",
          "name": "index",
          "type": "uint256"
        }
      ],
      "name": "getRoleMember",
      "outputs": [
        {
          "internalType": "address",
          "name": "",
          "type": "address"
        }
      ],
      "stateMutability": "view",
      "type": "function",
      "constant": true
    },
    {
      "inputs": [
        {
          "internalType": "bytes32",
          "name": "role",
          "type": "bytes32"
        }
      ],
      "name": "getRoleMemberCount",
      "outputs": [
        {
          "internalType": "uint256",
          "name": "",
          "type": "uint256"
        }
      ],
      "stateMutability": "view",
      "type": "function",
      "constant": true
    },
    {
      "inputs": [
        {
          "internalType": "bytes32",
          "name": "role",
          "type": "bytes32"
        },
        {
          "internalType": "address",
          "name": "account",
          "type": "address"
        }
      ],
      "name": "grantRole",
      "outputs": [],
      "stateMutability": "nonpayable",
      "type": "function"
    },
    {
      "inputs": [
        {
          "internalType": "bytes32",
          "name": "role",
          "type": "bytes32"
        },
        {
          "internalType": "address",
          "name": "account",
          "type": "address"
        }
      ],
      "name": "hasRole",
      "outputs": [
        {
          "internalType": "bool",
          "name": "",
          "type": "bool"
        }
      ],
      "stateMutability": "view",
      "type": "function",
      "constant": true
    },
    {
      "inputs": [
        {
          "internalType": "address",
          "name": "spender",
          "type": "address"
        },
        {
          "internalType": "uint256",
          "name": "addedValue",
          "type": "uint256"
        }
      ],
      "name": "increaseAllowance",
      "outputs": [
        {
          "internalType": "bool",
          "name": "",
          "type": "bool"
        }
      ],
      "stateMutability": "nonpayable",
      "type": "function"
    },
    {
      "inputs": [
        {
          "internalType": "address",
          "name": "",
          "type": "address"
        },
        {
          "internalType": "uint256",
          "name": "",
          "type": "uint256"
        }
      ],
      "name": "lockReason",
      "outputs": [
        {
          "internalType": "bytes32",
          "name": "",
          "type": "bytes32"
        }
      ],
      "stateMutability": "view",
      "type": "function",
      "constant": true
    },
    {
      "inputs": [
        {
          "internalType": "address",
          "name": "",
          "type": "address"
        },
        {
          "internalType": "bytes32",
          "name": "",
          "type": "bytes32"
        }
      ],
      "name": "locked",
      "outputs": [
        {
          "internalType": "uint256",
          "name": "amount",
          "type": "uint256"
        },
        {
          "internalType": "uint256",
          "name": "validity",
          "type": "uint256"
        },
        {
          "internalType": "bool",
          "name": "claimed",
          "type": "bool"
        }
      ],
      "stateMutability": "view",
      "type": "function",
      "constant": true
    },
    {
      "inputs": [],
      "name": "name",
      "outputs": [
        {
          "internalType": "string",
          "name": "",
          "type": "string"
        }
      ],
      "stateMutability": "view",
      "type": "function",
      "constant": true
    },
    {
      "inputs": [
        {
          "internalType": "bytes32",
          "name": "role",
          "type": "bytes32"
        },
        {
          "internalType": "address",
          "name": "account",
          "type": "address"
        }
      ],
      "name": "renounceRole",
      "outputs": [],
      "stateMutability": "nonpayable",
      "type": "function"
    },
    {
      "inputs": [
        {
          "internalType": "bytes32",
          "name": "role",
          "type": "bytes32"
        },
        {
          "internalType": "address",
          "name": "account",
          "type": "address"
        }
      ],
      "name": "revokeRole",
      "outputs": [],
      "stateMutability": "nonpayable",
      "type": "function"
    },
    {
      "inputs": [],
      "name": "symbol",
      "outputs": [
        {
          "internalType": "string",
          "name": "",
          "type": "string"
        }
      ],
      "stateMutability": "view",
      "type": "function",
      "constant": true
    },
    {
      "inputs": [],
      "name": "totalSupply",
      "outputs": [
        {
          "internalType": "uint256",
          "name": "",
          "type": "uint256"
        }
      ],
      "stateMutability": "view",
      "type": "function",
      "constant": true
    },
    {
      "inputs": [
        {
          "internalType": "address",
          "name": "recipient",
          "type": "address"
        },
        {
          "internalType": "uint256",
          "name": "amount",
          "type": "uint256"
        }
      ],
      "name": "transfer",
      "outputs": [
        {
          "internalType": "bool",
          "name": "",
          "type": "bool"
        }
      ],
      "stateMutability": "nonpayable",
      "type": "function"
    },
    {
      "inputs": [
        {
          "internalType": "address",
          "name": "sender",
          "type": "address"
        },
        {
          "internalType": "address",
          "name": "recipient",
          "type": "address"
        },
        {
          "internalType": "uint256",
          "name": "amount",
          "type": "uint256"
        }
      ],
      "name": "transferFrom",
      "outputs": [
        {
          "internalType": "bool",
          "name": "",
          "type": "bool"
        }
      ],
      "stateMutability": "nonpayable",
      "type": "function"
    },
    {
      "inputs": [],
      "name": "version",
      "outputs": [
        {
          "internalType": "string",
          "name": "",
          "type": "string"
        }
      ],
      "stateMutability": "view",
      "type": "function",
      "constant": true
    },
    {
      "inputs": [
        {
          "internalType": "address",
          "name": "to",
          "type": "address"
        },
        {
          "internalType": "uint256",
          "name": "amount",
          "type": "uint256"
        }
      ],
      "name": "mint",
      "outputs": [],
      "stateMutability": "nonpayable",
      "type": "function"
    },
    {
      "inputs": [
        {
          "internalType": "address",
          "name": "from",
          "type": "address"
        },
        {
          "internalType": "uint256",
          "name": "amount",
          "type": "uint256"
        }
      ],
      "name": "burn",
      "outputs": [],
      "stateMutability": "nonpayable",
      "type": "function"
    },
    {
      "inputs": [
        {
          "internalType": "bytes32",
          "name": "_reason",
          "type": "bytes32"
        },
        {
          "internalType": "uint256",
          "name": "_amount",
          "type": "uint256"
        },
        {
          "internalType": "uint256",
          "name": "_time",
          "type": "uint256"
        }
      ],
      "name": "lock",
      "outputs": [
        {
          "internalType": "bool",
          "name": "",
          "type": "bool"
        }
      ],
      "stateMutability": "nonpayable",
      "type": "function"
    },
    {
      "inputs": [
        {
          "internalType": "address",
          "name": "_to",
          "type": "address"
        },
        {
          "internalType": "bytes32",
          "name": "_reason",
          "type": "bytes32"
        },
        {
          "internalType": "uint256",
          "name": "_amount",
          "type": "uint256"
        },
        {
          "internalType": "uint256",
          "name": "_time",
          "type": "uint256"
        }
      ],
      "name": "transferWithLock",
      "outputs": [
        {
          "internalType": "bool",
          "name": "",
          "type": "bool"
        }
      ],
      "stateMutability": "nonpayable",
      "type": "function"
    },
    {
      "inputs": [
        {
          "internalType": "address",
          "name": "_of",
          "type": "address"
        },
        {
          "internalType": "bytes32",
          "name": "_reason",
          "type": "bytes32"
        }
      ],
      "name": "tokensLocked",
      "outputs": [
        {
          "internalType": "uint256",
          "name": "amount",
          "type": "uint256"
        }
      ],
      "stateMutability": "view",
      "type": "function",
      "constant": true
    },
    {
      "inputs": [
        {
          "internalType": "address",
          "name": "_of",
          "type": "address"
        },
        {
          "internalType": "bytes32",
          "name": "_reason",
          "type": "bytes32"
        },
        {
          "internalType": "uint256",
          "name": "_time",
          "type": "uint256"
        }
      ],
      "name": "tokensLockedAtTime",
      "outputs": [
        {
          "internalType": "uint256",
          "name": "amount",
          "type": "uint256"
        }
      ],
      "stateMutability": "view",
      "type": "function",
      "constant": true
    },
    {
      "inputs": [
        {
          "internalType": "address",
          "name": "_of",
          "type": "address"
        }
      ],
      "name": "totalBalanceOf",
      "outputs": [
        {
          "internalType": "uint256",
          "name": "amount",
          "type": "uint256"
        }
      ],
      "stateMutability": "view",
      "type": "function",
      "constant": true
    },
    {
      "inputs": [
        {
          "internalType": "bytes32",
          "name": "_reason",
          "type": "bytes32"
        },
        {
          "internalType": "uint256",
          "name": "_time",
          "type": "uint256"
        }
      ],
      "name": "extendLock",
      "outputs": [
        {
          "internalType": "bool",
          "name": "",
          "type": "bool"
        }
      ],
      "stateMutability": "nonpayable",
      "type": "function"
    },
    {
      "inputs": [
        {
          "internalType": "bytes32",
          "name": "_reason",
          "type": "bytes32"
        },
        {
          "internalType": "uint256",
          "name": "_amount",
          "type": "uint256"
        }
      ],
      "name": "increaseLockAmount",
      "outputs": [
        {
          "internalType": "bool",
          "name": "",
          "type": "bool"
        }
      ],
      "stateMutability": "nonpayable",
      "type": "function"
    },
    {
      "inputs": [
        {
          "internalType": "address",
          "name": "_of",
          "type": "address"
        },
        {
          "internalType": "bytes32",
          "name": "_reason",
          "type": "bytes32"
        }
      ],
      "name": "tokensUnlockable",
      "outputs": [
        {
          "internalType": "uint256",
          "name": "amount",
          "type": "uint256"
        }
      ],
      "stateMutability": "view",
      "type": "function",
      "constant": true
    },
    {
      "inputs": [
        {
          "internalType": "address",
          "name": "_of",
          "type": "address"
        }
      ],
      "name": "unlock",
      "outputs": [
        {
          "internalType": "uint256",
          "name": "unlockableTokens",
          "type": "uint256"
        }
      ],
      "stateMutability": "nonpayable",
      "type": "function"
    },
    {
      "inputs": [
        {
          "internalType": "address",
          "name": "_of",
          "type": "address"
        }
      ],
      "name": "getUnlockableTokens",
      "outputs": [
        {
          "internalType": "uint256",
          "name": "unlockableTokens",
          "type": "uint256"
        }
      ],
      "stateMutability": "view",
      "type": "function",
      "constant": true
    }
  ],
  "bytecode": "0x60c0604052600c60808190526b4859504f574552204553434f60a01b60a09081526200002f91600991906200052c565b50604080518082019091526004808252634859504560e01b60209092019182526200005d91600a916200052c565b50604080518082019091526003808252620312e360ec1b60209092019182526200008a91600b916200052c565b50600c805460ff19166012179081905560ff16600a0a600d8190556000600e556302faf08002600f55348015620000c057600080fd5b506009805460408051602060026001851615610100026000190190941693909304601f810184900484028201840190925281815292918301828280156200014b5780601f106200011f576101008083540402835291602001916200014b565b820191906000526020600020905b8154815290600101906020018083116200012d57829003601f168201915b5050600a8054604080516020601f6002600019610100600188161502019095169490940493840181900481028201810190925282815295509193509150830182828015620001dd5780601f10620001b157610100808354040283529160200191620001dd565b820191906000526020600020905b815481529060010190602001808311620001bf57829003601f168201915b50508451620001f79350600492506020860191506200052c565b5080516200020d9060059060208401906200052c565b50506006805460ff1916601217905550600c54600e546200023a91339160ff91909116600a0a02620002a5565b62000247600033620003b8565b620002737f3c11d16cbaffd01df69ce1c404f6340ee057498f5f00246190ea54220576a84833620003b8565b6200029f7f9f2df0fed2c77648de5860a4cc508cd0818c85b8b8a1ab4ceeef8d981c8956a633620003b8565b620005d8565b6001600160a01b03821662000301576040805162461bcd60e51b815260206004820152601f60248201527f45524332303a206d696e7420746f20746865207a65726f206164647265737300604482015290519081900360640190fd5b6200030f60008383620003c8565b6200032b81600354620003cd60201b620015d51790919060201c565b6003556001600160a01b03821660009081526001602090815260409091205462000360918390620015d5620003cd821b17901c565b6001600160a01b03831660008181526001602090815260408083209490945583518581529351929391927fddf252ad1be2c89b69c2b068fc378daa952ba7f163c4a11628f55a4df523b3ef9281900390910190a35050565b620003c4828262000431565b5050565b505050565b60008282018381101562000428576040805162461bcd60e51b815260206004820152601b60248201527f536166654d6174683a206164646974696f6e206f766572666c6f770000000000604482015290519081900360640190fd5b90505b92915050565b600082815260208181526040909120620004569183906200162f620004aa821b17901c565b15620003c45762000466620004c1565b6001600160a01b0316816001600160a01b0316837f2f8788117e7eff1d82e926ec794901d17c78024a50270940304540a733656f0d60405160405180910390a45050565b600062000428836001600160a01b038416620004c5565b3390565b6000620004d3838362000514565b6200050b575081546001818101845560008481526020808220909301849055845484825282860190935260409020919091556200042b565b5060006200042b565b60009081526001919091016020526040902054151590565b828054600181600116156101000203166002900490600052602060002090601f016020900481019282620005645760008555620005af565b82601f106200057f57805160ff1916838001178555620005af565b82800160010185558215620005af579182015b82811115620005af57825182559160200191906001019062000592565b50620005bd929150620005c1565b5090565b5b80821115620005bd5760008155600101620005c2565b61204a80620005e86000396000f3fe608060405234801561001057600080fd5b50600436106102065760003560e01c80635ca48d8c1161011a578063a217fddf116100ad578063ab4a2eb31161007c578063ab4a2eb3146106db578063ca15c87314610701578063d547741f1461071e578063d71be8db1461074a578063dd62ed3e1461079657610206565b8063a217fddf14610658578063a457c2d714610660578063a9059cbb1461068c578063a9dab167146106b857610206565b80639010d07c116100e95780639010d07c146105b957806391d14854146105f857806395d89b41146106245780639dc29fac1461062c57610206565b80635ca48d8c1461051857806370a082311461054457806371d66f001461056a57806381fc4d901461059657610206565b80632f6c493c1161019d57806340c10f191161016c57806340c10f191461045a5780634b0ee02a146104865780634cb5465f146104ac5780635294d0e8146104e457806354fd4d501461051057610206565b80632f6c493c146103be578063313ce567146103e457806336568abe14610402578063395093511461042e57610206565b806323b872dd116101d957806323b872dd14610314578063248a9ca31461034a5780632e82aaf2146103675780632f2ff15d1461039057610206565b806306fdde031461020b578063095ea7b314610288578063179e91f1146102c857806318160ddd1461030c575b600080fd5b6102136107c4565b6040805160208082528351818301528351919283929083019185019080838360005b8381101561024d578181015183820152602001610235565b50505050905090810190601f16801561027a5780820380516001836020036101000a031916815260200191505b509250505060405180910390f35b6102b46004803603604081101561029e57600080fd5b506001600160a01b03813516906020013561085a565b604080519115158252519081900360200190f35b6102fa600480360360608110156102de57600080fd5b506001600160a01b038135169060208101359060400135610878565b60408051918252519081900360200190f35b6102fa6108e9565b6102b46004803603606081101561032a57600080fd5b506001600160a01b038135811691602081013590911690604001356108ef565b6102fa6004803603602081101561036057600080fd5b5035610976565b6102b46004803603606081101561037d57600080fd5b508035906020810135906040013561098b565b6103bc600480360360408110156103a657600080fd5b50803590602001356001600160a01b0316610a9d565b005b6102fa600480360360208110156103d457600080fd5b50356001600160a01b0316610b09565b6103ec610cf7565b6040805160ff9092168252519081900360200190f35b6103bc6004803603604081101561041857600080fd5b50803590602001356001600160a01b0316610d00565b6102b46004803603604081101561044457600080fd5b506001600160a01b038135169060200135610d61565b6103bc6004803603604081101561047057600080fd5b506001600160a01b038135169060200135610daf565b6102fa6004803603602081101561049c57600080fd5b50356001600160a01b0316610e24565b6102b4600480360360808110156104c257600080fd5b506001600160a01b038135169060208101359060408101359060600135610ec8565b6102fa600480360360408110156104fa57600080fd5b506001600160a01b038135169060200135610ff6565b610213611097565b6102fa6004803603604081101561052e57600080fd5b506001600160a01b0381351690602001356110f8565b6102fa6004803603602081101561055a57600080fd5b50356001600160a01b0316611165565b6102fa6004803603604081101561058057600080fd5b506001600160a01b038135169060200135611180565b6102b4600480360360408110156105ac57600080fd5b50803590602001356111b1565b6105dc600480360360408110156105cf57600080fd5b508035906020013561125b565b604080516001600160a01b039092168252519081900360200190f35b6102b46004803603604081101561060e57600080fd5b50803590602001356001600160a01b0316611273565b61021361128b565b6103bc6004803603604081101561064257600080fd5b506001600160a01b0381351690602001356112ec565b6102fa611361565b6102b46004803603604081101561067657600080fd5b506001600160a01b038135169060200135611366565b6102b4600480360360408110156106a257600080fd5b506001600160a01b0381351690602001356113ce565b6102b4600480360360408110156106ce57600080fd5b50803590602001356113e2565b6102fa600480360360208110156106f157600080fd5b50356001600160a01b0316611488565b6102fa6004803603602081101561071757600080fd5b503561150b565b6103bc6004803603604081101561073457600080fd5b50803590602001356001600160a01b0316611522565b6107766004803603604081101561076057600080fd5b506001600160a01b03813516906020013561157b565b604080519384526020840192909252151582820152519081900360600190f35b6102fa600480360360408110156107ac57600080fd5b506001600160a01b03813581169160200135166115aa565b60048054604080516020601f60026000196101006001881615020190951694909404938401819004810282018101909252828152606093909290918301828280156108505780601f1061082557610100808354040283529160200191610850565b820191906000526020600020905b81548152906001019060200180831161083357829003601f168201915b5050505050905090565b600061086e610867611644565b8484611648565b5060015b92915050565b60006108848133611273565b61088d57600080fd5b6001600160a01b03841660009081526008602090815260408083208684529091528120600101548310156108e157506001600160a01b03841660009081526008602090815260408083208684529091529020545b949350505050565b60035490565b60006108fc848484611734565b61096c84610908611644565b61096785604051806060016040528060288152602001611f2f602891396001600160a01b038a16600090815260026020526040812090610946611644565b6001600160a01b031681526020810191909152604001600020549190611891565b611648565b5060019392505050565b60009081526020819052604090206002015490565b60006109978133611273565b6109a057600080fd5b6109aa33856110f8565b156109b457600080fd5b826109be57600080fd5b60006109ca42846115d5565b336000908152600860209081526040808320898452909152902054909150610a0f57336000908152600760209081526040822080546001810182559083529120018590555b610a1930856113ce565b50604080516060810182528581526020808201848152600083850181815233808352600885528683208c8452855291869020945185559151600185015590516002909301805460ff191693151593909317909255825187815290810184905282518893600080516020611e46833981519152928290030190a3506001949350505050565b600082815260208190526040902060020154610ac090610abb611644565b611273565b610afb5760405162461bcd60e51b815260040180806020018281038252602f815260200180611e66602f913960400191505060405180910390fd5b610b058282611928565b5050565b6000610b158133611273565b610b1e57600080fd5b60008060005b6001600160a01b038516600090815260076020526040902054811015610c6d576001600160a01b03851660009081526007602052604090208054610b7e91879184908110610b6e57fe5b9060005260206000200154610ff6565b92508215610c6557610b9082846115d5565b6001600160a01b038616600090815260086020908152604080832060079092528220805493955060019391929185908110610bc757fe5b60009182526020808320919091015483528281019390935260409182018120600201805460ff1916941515949094179093556001600160a01b038816835260079091529020805482908110610c1857fe5b9060005260206000200154856001600160a01b03167f11f87fd5adcd05786919b8b868f59a70d78ae4eb6f305c5927f9c5b1659841a4856040518082815260200191505060405180910390a35b600101610b24565b508015610cf0576040805163a9059cbb60e01b81526001600160a01b0386166004820152602481018390529051309163a9059cbb9160448083019260209291908290030181600087803b158015610cc357600080fd5b505af1158015610cd7573d6000803e3d6000fd5b505050506040513d6020811015610ced57600080fd5b50505b9392505050565b60065460ff1690565b610d08611644565b6001600160a01b0316816001600160a01b031614610d575760405162461bcd60e51b815260040180806020018281038252602f815260200180611fe6602f913960400191505060405180910390fd5b610b058282611991565b600061086e610d6e611644565b846109678560026000610d7f611644565b6001600160a01b03908116825260208083019390935260409182016000908120918c1681529252902054906115d5565b610dd97f9f2df0fed2c77648de5860a4cc508cd0818c85b8b8a1ab4ceeef8d981c8956a633611273565b610de257600080fd5b60008111610def57600080fd5b600f54600e54610dff90836115d5565b1115610e0a57600080fd5b600e54610e1790826115d5565b600e55610b0582826119fa565b6000610e308133611273565b610e3957600080fd5b6000610e4483611165565b905060005b6001600160a01b038416600090815260076020526040902054811015610ec157610eb7610eb08560076000886001600160a01b03166001600160a01b031681526020019081526020016000208481548110610ea057fe5b90600052602060002001546110f8565b83906115d5565b9150600101610e49565b5092915050565b6000610ed48133611273565b610edd57600080fd5b610ee785856110f8565b15610ef157600080fd5b82610efb57600080fd5b6000610f0742846115d5565b6001600160a01b0387166000908152600860209081526040808320898452909152902054909150610f5e576001600160a01b0386166000908152600760209081526040822080546001810182559083529120018590555b610f6830856113ce565b5060408051606081018252858152602080820184815260008385018181526001600160a01b038c16808352600885528683208c8452855291869020945185559151600185015590516002909301805460ff191693151593909317909255825187815290810184905282518893600080516020611e46833981519152928290030190a350600195945050505050565b60006110028133611273565b61100b57600080fd5b6001600160a01b0383166000908152600860209081526040808320858452909152812060010154421080159061106857506001600160a01b038416600090815260086020908152604080832086845290915290206002015460ff16155b15610cf05750506001600160a01b03919091166000908152600860209081526040808320938352929052205490565b600b8054604080516020601f60026000196101006001881615020190951694909404938401819004810282018101909252828152606093909290918301828280156108505780601f1061082557610100808354040283529160200191610850565b60006111048133611273565b61110d57600080fd5b6001600160a01b038316600090815260086020908152604080832085845290915281206002015460ff16610cf05750506001600160a01b03919091166000908152600860209081526040808320938352929052205490565b6001600160a01b031660009081526001602052604090205490565b6007602052816000526040600020818154811061119c57600080fd5b90600052602060002001600091509150505481565b60006111bd8133611273565b6111c657600080fd5b60006111d233856110f8565b116111dc57600080fd5b6111e630836113ce565b5033600090815260086020908152604080832086845290915290205461120c90836115d5565b3360008181526008602090815260408083208884528252918290208481556001015482519485529084015280518693600080516020611e4683398151915292908290030190a350600192915050565b6000828152602081905260408120610cf09083611aec565b6000828152602081905260408120610cf09083611af8565b60058054604080516020601f60026000196101006001881615020190951694909404938401819004810282018101909252828152606093909290918301828280156108505780601f1061082557610100808354040283529160200191610850565b6113167f3c11d16cbaffd01df69ce1c404f6340ee057498f5f00246190ea54220576a84833611273565b61131f57600080fd5b6000811161132c57600080fd5b600e5460009061133c9083611b0d565b101561134757600080fd5b600e546113549082611b0d565b600e55610b058282611b4f565b600081565b600061086e611373611644565b8461096785604051806060016040528060258152602001611fc1602591396002600061139d611644565b6001600160a01b03908116825260208083019390935260409182016000908120918d16815292529020549190611891565b600061086e6113db611644565b8484611734565b60006113ee8133611273565b6113f757600080fd5b600061140333856110f8565b1161140d57600080fd5b33600090815260086020908152604080832086845290915290206001015461143590836115d5565b336000818152600860209081526040808320888452825291829020600181018590555482519081529081019390935280518693600080516020611e4683398151915292908290030190a350600192915050565b60006114948133611273565b61149d57600080fd5b60008060005b6001600160a01b038516600090815260076020526040902054811015611503576001600160a01b038516600090815260076020526040902080546114ed91879184908110610b6e57fe5b92506114f982846115d5565b91506001016114a3565b505050919050565b600081815260208190526040812061087290611c4b565b60008281526020819052604090206002015461154090610abb611644565b610d575760405162461bcd60e51b8152600401808060200182810382526030815260200180611eff6030913960400191505060405180910390fd5b600860209081526000928352604080842090915290825290208054600182015460029092015490919060ff1683565b6001600160a01b03918216600090815260026020908152604080832093909416825291909152205490565b600082820183811015610cf0576040805162461bcd60e51b815260206004820152601b60248201527f536166654d6174683a206164646974696f6e206f766572666c6f770000000000604482015290519081900360640190fd5b6000610cf0836001600160a01b038416611c56565b3390565b6001600160a01b03831661168d5760405162461bcd60e51b8152600401808060200182810382526024815260200180611f9d6024913960400191505060405180910390fd5b6001600160a01b0382166116d25760405162461bcd60e51b8152600401808060200182810382526022815260200180611eb76022913960400191505060405180910390fd5b6001600160a01b03808416600081815260026020908152604080832094871680845294825291829020859055815185815291517f8c5be1e5ebec7d5bd14f71427d1e84f3dd0314c0f7b2291e5b200ac8c7c3b9259281900390910190a3505050565b6001600160a01b0383166117795760405162461bcd60e51b8152600401808060200182810382526025815260200180611f786025913960400191505060405180910390fd5b6001600160a01b0382166117be5760405162461bcd60e51b8152600401808060200182810382526023815260200180611e236023913960400191505060405180910390fd5b6117c9838383611ca0565b61180681604051806060016040528060268152602001611ed9602691396001600160a01b0386166000908152600160205260409020549190611891565b6001600160a01b03808516600090815260016020526040808220939093559084168152205461183590826115d5565b6001600160a01b0380841660008181526001602090815260409182902094909455805185815290519193928716927fddf252ad1be2c89b69c2b068fc378daa952ba7f163c4a11628f55a4df523b3ef92918290030190a3505050565b600081848411156119205760405162461bcd60e51b81526004018080602001828103825283818151815260200191508051906020019080838360005b838110156118e55781810151838201526020016118cd565b50505050905090810190601f1680156119125780820380516001836020036101000a031916815260200191505b509250505060405180910390fd5b505050900390565b6000828152602081905260409020611940908261162f565b15610b055761194d611644565b6001600160a01b0316816001600160a01b0316837f2f8788117e7eff1d82e926ec794901d17c78024a50270940304540a733656f0d60405160405180910390a45050565b60008281526020819052604090206119a99082611ca5565b15610b05576119b6611644565b6001600160a01b0316816001600160a01b0316837ff6391f5c32d9c69d2a47ea670b442974b53935d1edc7fd64eb21e047a839171b60405160405180910390a45050565b6001600160a01b038216611a55576040805162461bcd60e51b815260206004820152601f60248201527f45524332303a206d696e7420746f20746865207a65726f206164647265737300604482015290519081900360640190fd5b611a6160008383611ca0565b600354611a6e90826115d5565b6003556001600160a01b038216600090815260016020526040902054611a9490826115d5565b6001600160a01b03831660008181526001602090815260408083209490945583518581529351929391927fddf252ad1be2c89b69c2b068fc378daa952ba7f163c4a11628f55a4df523b3ef9281900390910190a35050565b6000610cf08383611cba565b6000610cf0836001600160a01b038416611d1e565b6000610cf083836040518060400160405280601e81526020017f536166654d6174683a207375627472616374696f6e206f766572666c6f770000815250611891565b6001600160a01b038216611b945760405162461bcd60e51b8152600401808060200182810382526021815260200180611f576021913960400191505060405180910390fd5b611ba082600083611ca0565b611bdd81604051806060016040528060228152602001611e95602291396001600160a01b0385166000908152600160205260409020549190611891565b6001600160a01b038316600090815260016020526040902055600354611c039082611b0d565b6003556040805182815290516000916001600160a01b038516917fddf252ad1be2c89b69c2b068fc378daa952ba7f163c4a11628f55a4df523b3ef9181900360200190a35050565b600061087282611d36565b6000611c628383611d1e565b611c9857508154600181810184556000848152602080822090930184905584548482528286019093526040902091909155610872565b506000610872565b505050565b6000610cf0836001600160a01b038416611d3a565b81546000908210611cfc5760405162461bcd60e51b8152600401808060200182810382526022815260200180611e016022913960400191505060405180910390fd5b826000018281548110611d0b57fe5b9060005260206000200154905092915050565b60009081526001919091016020526040902054151590565b5490565b60008181526001830160205260408120548015611df65783546000198083019190810190600090879083908110611d6d57fe5b9060005260206000200154905080876000018481548110611d8a57fe5b600091825260208083209091019290925582815260018981019092526040902090840190558654879080611dba57fe5b60019003818190600052602060002001600090559055866001016000878152602001908152602001600020600090556001945050505050610872565b600091505061087256fe456e756d657261626c655365743a20696e646578206f7574206f6620626f756e647345524332303a207472616e7366657220746f20746865207a65726f2061646472657373ea90ef40963535482537f0689e05cb8d259e459ebd21530e826702294d0eafdd416363657373436f6e74726f6c3a2073656e646572206d75737420626520616e2061646d696e20746f206772616e7445524332303a206275726e20616d6f756e7420657863656564732062616c616e636545524332303a20617070726f766520746f20746865207a65726f206164647265737345524332303a207472616e7366657220616d6f756e7420657863656564732062616c616e6365416363657373436f6e74726f6c3a2073656e646572206d75737420626520616e2061646d696e20746f207265766f6b6545524332303a207472616e7366657220616d6f756e74206578636565647320616c6c6f77616e636545524332303a206275726e2066726f6d20746865207a65726f206164647265737345524332303a207472616e736665722066726f6d20746865207a65726f206164647265737345524332303a20617070726f76652066726f6d20746865207a65726f206164647265737345524332303a2064656372656173656420616c6c6f77616e63652062656c6f77207a65726f416363657373436f6e74726f6c3a2063616e206f6e6c792072656e6f756e636520726f6c657320666f722073656c66a2646970667358221220fe93a30bcc077d64e24a693f56b445202a8a03b95a92f034c442c54d97ff07a164736f6c63430007060033",
  "immutableReferences": {},
  "source": "// contracts/HYPE.sol\n// SPDX-License-Identifier: MIT\npragma solidity >=0.4.22 <0.9.0;\n\nimport \"@openzeppelin/contracts/token/ERC20/ERC20.sol\";\nimport \"@openzeppelin/contracts/access/AccessControl.sol\";\nimport \"@openzeppelin/contracts/math/SafeMath.sol\";\nimport \"./ERC1132.sol\";\n\n/// @title ERC20 token.\n/// @notice Implementation for the ERC-1132 lockable token\ncontract HYPE is AccessControl, ERC20, ERC1132 {\n  /**\n    * @dev Token issue information\n    */\n  string private _name = \"HYPOWER ESCO\";\n  string private _symbol = \"HYPE\";\n  string private _version = \"1.0\";\n  uint8 private _decimals = 18;\n\n  uint256 private _exponent = 10**uint256(_decimals);\n  uint256 private _totalSupply = 0;\n  uint256 private _totalSupplyCap = 50 * (10**6) * _exponent;\n\n  mapping (address => mapping (address => uint256)) private _allowances;\n\n  /**\n    * @dev Token role information\n    */\n  bytes32 private constant MINTER_ROLE = keccak256(\"MINTER_ROLE\");\n  bytes32 private constant BURNER_ROLE = keccak256(\"BURNER_ROLE\");\n\n  using SafeMath for uint;\n\n  constructor() ERC20(_name, _symbol) {\n    _mint(msg.sender, _totalSupply * (10 ** uint(_decimals)));\n    _setupRole(DEFAULT_ADMIN_ROLE, msg.sender);\n    _setupRole(BURNER_ROLE, msg.sender);\n    _setupRole(MINTER_ROLE, msg.sender);\n  }\n\n  function version() public view returns (string memory) {\n    return _version;\n  }\n\n  function mint(address to, uint256 amount) public {\n    require(hasRole(MINTER_ROLE, msg.sender));\n    require(amount > 0);\n    require(_totalSupply.add(amount) <= _totalSupplyCap);\n    _totalSupply = _totalSupply.add(amount);\n    _mint(to, amount);\n  }\n\n  function burn(address from, uint256 amount) public {\n    require(hasRole(BURNER_ROLE, msg.sender));\n    require(amount > 0);\n    require(_totalSupply.sub(amount) >= 0);\n    _totalSupply = _totalSupply.sub(amount);\n    _burn(from, amount);\n  }\n\n  /**\n     * @dev Locks a specified amount of tokens against an address,\n     *      for a specified reason and time\n     * @param _reason The reason to lock tokens\n     * @param _amount Number of tokens to be locked\n     * @param _time Lock time in seconds\n     */\n  function lock(bytes32 _reason, uint256 _amount, uint256 _time) override public returns (bool) {\n    require(hasRole(DEFAULT_ADMIN_ROLE, msg.sender));\n    require(tokensLocked(msg.sender, _reason) == 0);\n    require(_amount != 0);\n    uint256 validUntil = block.timestamp.add(_time);\n\n    if (locked[msg.sender][_reason].amount == 0) {\n      lockReason[msg.sender].push(_reason);\n    } \n\n    transfer(address(this), _amount);\n    locked[msg.sender][_reason] = lockToken(_amount, validUntil, false);\n\n    emit Locked(msg.sender, _reason, _amount, validUntil);\n\n    return true;\n  }\n\n  /**\n    * @dev Transfers and Locks a specified amount of tokens,\n    *      for a specified reason and time\n    * @param _to adress to which tokens are to be transfered\n    * @param _reason The reason to lock tokens\n    * @param _amount Number of tokens to be transfered and locked\n    * @param _time Lock time in seconds\n    */\n  function transferWithLock(address _to, bytes32 _reason, uint256 _amount, uint256 _time) public returns (bool) {\n    require(hasRole(DEFAULT_ADMIN_ROLE, msg.sender));\n    require(tokensLocked(_to, _reason) == 0);\n    require(_amount != 0);\n    uint256 validUntil = block.timestamp.add(_time);\n\n    if (locked[_to][_reason].amount == 0) {\n      lockReason[_to].push(_reason);\n    }\n\n    transfer(address(this), _amount);\n    locked[_to][_reason] = lockToken(_amount, validUntil, false);\n\n    emit Locked(_to, _reason, _amount, validUntil);\n    \n    return true;\n  }\n\n  /**\n    * @dev Returns tokens locked for a specified address for a\n    *      specified reason\n    *\n    * @param _of The address whose tokens are locked\n    * @param _reason The reason to query the lock tokens for\n    */\n  function tokensLocked(address _of, bytes32 _reason) override public view returns (uint256 amount) {\n    require(hasRole(DEFAULT_ADMIN_ROLE, msg.sender));\n    uint256 _amounts;\n\n    if (!locked[_of][_reason].claimed) {\n      _amounts = locked[_of][_reason].amount;\n    }\n    \n    return _amounts;\n  }\n\n  /**\n    * @dev Returns tokens locked for a specified address for a\n    *      specified reason at a specific time\n    *\n    * @param _of The address whose tokens are locked\n    * @param _reason The reason to query the lock tokens for\n    * @param _time The timestamp to query the lock tokens for\n    */\n  function tokensLockedAtTime(address _of, bytes32 _reason, uint256 _time) override public view returns (uint256 amount) {\n    require(hasRole(DEFAULT_ADMIN_ROLE, msg.sender));\n    uint256 _amounts;\n\n    if (locked[_of][_reason].validity > _time) {\n      _amounts = locked[_of][_reason].amount;\n    }\n\n    return _amounts;\n  }\n\n  /**\n    * @dev Returns total tokens held by an address (locked + transferable)\n    * @param _of The address to query the total balance of\n    */\n  function totalBalanceOf(address _of) override public view returns (uint256 amount) {\n    require(hasRole(DEFAULT_ADMIN_ROLE, msg.sender));\n    uint256 _amounts;\n\n    _amounts = balanceOf(_of);\n\n    for (uint256 i = 0; i < lockReason[_of].length; i++) {\n      _amounts = _amounts.add(tokensLocked(_of, lockReason[_of][i]));\n    }\n\n    return _amounts;\n  }\n\n  /**\n    * @dev Extends lock for a specified reason and time\n    * @param _reason The reason to lock tokens\n    * @param _time Lock extension time in seconds\n    */\n  function extendLock(bytes32 _reason, uint256 _time) override public returns (bool) {\n    require(hasRole(DEFAULT_ADMIN_ROLE, msg.sender));\n    require(tokensLocked(msg.sender, _reason) > 0);\n\n    locked[msg.sender][_reason].validity = locked[msg.sender][_reason].validity.add(_time);\n\n    emit Locked(msg.sender, _reason, locked[msg.sender][_reason].amount, locked[msg.sender][_reason].validity);\n    \n    return true;\n  }\n\n  /**\n    * @dev Increase number of tokens locked for a specified reason\n    * @param _reason The reason to lock tokens\n    * @param _amount Number of tokens to be increased\n    */\n  function increaseLockAmount(bytes32 _reason, uint256 _amount) public override returns (bool) {\n    require(hasRole(DEFAULT_ADMIN_ROLE, msg.sender));\n    require(tokensLocked(msg.sender, _reason) > 0);\n    \n    transfer(address(this), _amount);\n    locked[msg.sender][_reason].amount = locked[msg.sender][_reason].amount.add(_amount);\n\n    emit Locked(msg.sender, _reason, locked[msg.sender][_reason].amount, locked[msg.sender][_reason].validity);\n    \n    return true;\n  }\n\n  /**\n    * @dev Returns unlockable tokens for a specified address for a specified reason\n    * @param _of The address to query the the unlockable token count of\n    * @param _reason The reason to query the unlockable tokens for\n    */\n  function tokensUnlockable(address _of, bytes32 _reason) override public view returns (uint256 amount) {\n    require(hasRole(DEFAULT_ADMIN_ROLE, msg.sender));\n    uint256 _amounts;\n\n    if (locked[_of][_reason].validity <= block.timestamp && !locked[_of][_reason].claimed) {\n      _amounts = locked[_of][_reason].amount;\n    }\n\n    return _amounts;\n  }\n\n  /**\n    * @dev Unlocks the unlockable tokens of a specified address\n    * @param _of Address of user, claiming back unlockable tokens\n    */\n  function unlock(address _of) public override returns (uint256 unlockableTokens) {\n    require(hasRole(DEFAULT_ADMIN_ROLE, msg.sender));\n    uint256 _lockedTokens;\n    uint256 _unlockableTokens;\n\n    for (uint256 i = 0; i < lockReason[_of].length; i++) {\n      _lockedTokens = tokensUnlockable(_of, lockReason[_of][i]);\n\n      if (_lockedTokens > 0) {\n        _unlockableTokens = _unlockableTokens.add(_lockedTokens);\n        locked[_of][lockReason[_of][i]].claimed = true;\n        emit Unlocked(_of, lockReason[_of][i], _lockedTokens);\n      }\n    }\n\n    if (_unlockableTokens > 0) {\n      this.transfer(_of, _unlockableTokens);\n    }\n\n    return _unlockableTokens;\n  }\n\n  function getUnlockableTokens(address _of) public override view returns (uint256 unlockableTokens) {\n    require(hasRole(DEFAULT_ADMIN_ROLE, msg.sender));\n    uint256 _lockedTokens;\n    uint256 _unlockableTokens;\n\n    for (uint256 i = 0; i < lockReason[_of].length; i++) {\n      _lockedTokens = tokensUnlockable(_of, lockReason[_of][i]);\n      _unlockableTokens = _unlockableTokens.add(_lockedTokens);\n    }\n\n    return unlockableTokens;\n  }\n}",
  "sourcePath": "/Volumes/Dev/Work3/hytechfarm/token/HYPE/contracts/HYPE.sol",
  "compiler": {
    "name": "solc",
    "version": "0.7.6+commit.7338295f.Emscripten.clang"
  },
  "schemaVersion": "3.3.3",
  "updatedAt": "2021-02-03T12:43:26.726Z",
  "networkType": "ethereum",
  "devdoc": {
    "kind": "dev",
    "methods": {
      "allowance(address,address)": {
        "details": "See {IERC20-allowance}."
      },
      "approve(address,uint256)": {
        "details": "See {IERC20-approve}. Requirements: - `spender` cannot be the zero address."
      },
      "balanceOf(address)": {
        "details": "See {IERC20-balanceOf}."
      },
      "decimals()": {
        "details": "Returns the number of decimals used to get its user representation. For example, if `decimals` equals `2`, a balance of `505` tokens should be displayed to a user as `5,05` (`505 / 10 ** 2`). Tokens usually opt for a value of 18, imitating the relationship between Ether and Wei. This is the value {ERC20} uses, unless {_setupDecimals} is called. NOTE: This information is only used for _display_ purposes: it in no way affects any of the arithmetic of the contract, including {IERC20-balanceOf} and {IERC20-transfer}."
      },
      "decreaseAllowance(address,uint256)": {
        "details": "Atomically decreases the allowance granted to `spender` by the caller. This is an alternative to {approve} that can be used as a mitigation for problems described in {IERC20-approve}. Emits an {Approval} event indicating the updated allowance. Requirements: - `spender` cannot be the zero address. - `spender` must have allowance for the caller of at least `subtractedValue`."
      },
      "extendLock(bytes32,uint256)": {
        "details": "Extends lock for a specified reason and time",
        "params": {
          "_reason": "The reason to lock tokens",
          "_time": "Lock extension time in seconds"
        }
      },
      "getRoleAdmin(bytes32)": {
        "details": "Returns the admin role that controls `role`. See {grantRole} and {revokeRole}. To change a role's admin, use {_setRoleAdmin}."
      },
      "getRoleMember(bytes32,uint256)": {
        "details": "Returns one of the accounts that have `role`. `index` must be a value between 0 and {getRoleMemberCount}, non-inclusive. Role bearers are not sorted in any particular way, and their ordering may change at any point. WARNING: When using {getRoleMember} and {getRoleMemberCount}, make sure you perform all queries on the same block. See the following https://forum.openzeppelin.com/t/iterating-over-elements-on-enumerableset-in-openzeppelin-contracts/2296[forum post] for more information."
      },
      "getRoleMemberCount(bytes32)": {
        "details": "Returns the number of accounts that have `role`. Can be used together with {getRoleMember} to enumerate all bearers of a role."
      },
      "getUnlockableTokens(address)": {
        "details": "Gets the unlockable tokens of a specified address",
        "params": {
          "_of": "The address to query the the unlockable token count of"
        }
      },
      "grantRole(bytes32,address)": {
        "details": "Grants `role` to `account`. If `account` had not been already granted `role`, emits a {RoleGranted} event. Requirements: - the caller must have ``role``'s admin role."
      },
      "hasRole(bytes32,address)": {
        "details": "Returns `true` if `account` has been granted `role`."
      },
      "increaseAllowance(address,uint256)": {
        "details": "Atomically increases the allowance granted to `spender` by the caller. This is an alternative to {approve} that can be used as a mitigation for problems described in {IERC20-approve}. Emits an {Approval} event indicating the updated allowance. Requirements: - `spender` cannot be the zero address."
      },
      "increaseLockAmount(bytes32,uint256)": {
        "details": "Increase number of tokens locked for a specified reason",
        "params": {
          "_amount": "Number of tokens to be increased",
          "_reason": "The reason to lock tokens"
        }
      },
      "lock(bytes32,uint256,uint256)": {
        "details": "Locks a specified amount of tokens against an address,      for a specified reason and time",
        "params": {
          "_amount": "Number of tokens to be locked",
          "_reason": "The reason to lock tokens",
          "_time": "Lock time in seconds"
        }
      },
      "name()": {
        "details": "Returns the name of the token."
      },
      "renounceRole(bytes32,address)": {
        "details": "Revokes `role` from the calling account. Roles are often managed via {grantRole} and {revokeRole}: this function's purpose is to provide a mechanism for accounts to lose their privileges if they are compromised (such as when a trusted device is misplaced). If the calling account had been granted `role`, emits a {RoleRevoked} event. Requirements: - the caller must be `account`."
      },
      "revokeRole(bytes32,address)": {
        "details": "Revokes `role` from `account`. If `account` had been granted `role`, emits a {RoleRevoked} event. Requirements: - the caller must have ``role``'s admin role."
      },
      "symbol()": {
        "details": "Returns the symbol of the token, usually a shorter version of the name."
      },
      "tokensLocked(address,bytes32)": {
        "details": "Returns tokens locked for a specified address for a      specified reason",
        "params": {
          "_of": "The address whose tokens are locked",
          "_reason": "The reason to query the lock tokens for"
        }
      },
      "tokensLockedAtTime(address,bytes32,uint256)": {
        "details": "Returns tokens locked for a specified address for a      specified reason at a specific time",
        "params": {
          "_of": "The address whose tokens are locked",
          "_reason": "The reason to query the lock tokens for",
          "_time": "The timestamp to query the lock tokens for"
        }
      },
      "tokensUnlockable(address,bytes32)": {
        "details": "Returns unlockable tokens for a specified address for a specified reason",
        "params": {
          "_of": "The address to query the the unlockable token count of",
          "_reason": "The reason to query the unlockable tokens for"
        }
      },
      "totalBalanceOf(address)": {
        "details": "Returns total tokens held by an address (locked + transferable)",
        "params": {
          "_of": "The address to query the total balance of"
        }
      },
      "totalSupply()": {
        "details": "See {IERC20-totalSupply}."
      },
      "transfer(address,uint256)": {
        "details": "See {IERC20-transfer}. Requirements: - `recipient` cannot be the zero address. - the caller must have a balance of at least `amount`."
      },
      "transferFrom(address,address,uint256)": {
        "details": "See {IERC20-transferFrom}. Emits an {Approval} event indicating the updated allowance. This is not required by the EIP. See the note at the beginning of {ERC20}. Requirements: - `sender` and `recipient` cannot be the zero address. - `sender` must have a balance of at least `amount`. - the caller must have allowance for ``sender``'s tokens of at least `amount`."
      },
      "transferWithLock(address,bytes32,uint256,uint256)": {
        "details": "Transfers and Locks a specified amount of tokens,      for a specified reason and time",
        "params": {
          "_amount": "Number of tokens to be transfered and locked",
          "_reason": "The reason to lock tokens",
          "_time": "Lock time in seconds",
          "_to": "adress to which tokens are to be transfered"
        }
      },
      "unlock(address)": {
        "details": "Unlocks the unlockable tokens of a specified address",
        "params": {
          "_of": "Address of user, claiming back unlockable tokens"
        }
      }
    },
    "stateVariables": {
      "MINTER_ROLE": {
        "details": "Token role information"
      },
      "_name": {
        "details": "Token issue information"
      }
    },
    "title": "ERC20 token.",
    "version": 1
  },
  "userdoc": {
    "kind": "user",
    "methods": {},
    "notice": "Implementation for the ERC-1132 lockable token",
    "version": 1
  }
}